{
  "contractName": "StableSwap",
  "abi": [
    {
      "inputs": [],
      "stateMutability": "nonpayable",
      "type": "constructor"
    },
    {
      "anonymous": false,
      "inputs": [
        {
          "indexed": false,
          "internalType": "address",
          "name": "_token",
          "type": "address"
        },
        {
          "indexed": false,
          "internalType": "uint256",
          "name": "_amount",
          "type": "uint256"
        }
      ],
      "name": "Deposit",
      "type": "event"
    },
    {
      "anonymous": false,
      "inputs": [
        {
          "indexed": true,
          "internalType": "address",
          "name": "previousOwner",
          "type": "address"
        },
        {
          "indexed": true,
          "internalType": "address",
          "name": "newOwner",
          "type": "address"
        }
      ],
      "name": "OwnershipTransferred",
      "type": "event"
    },
    {
      "anonymous": false,
      "inputs": [
        {
          "indexed": false,
          "internalType": "uint256",
          "name": "_amount",
          "type": "uint256"
        }
      ],
      "name": "Receive",
      "type": "event"
    },
    {
      "anonymous": false,
      "inputs": [
        {
          "indexed": false,
          "internalType": "address",
          "name": "_inToken",
          "type": "address"
        },
        {
          "indexed": false,
          "internalType": "address",
          "name": "_outToken",
          "type": "address"
        },
        {
          "indexed": false,
          "internalType": "uint256",
          "name": "_inToOutSwapRate",
          "type": "uint256"
        },
        {
          "indexed": false,
          "internalType": "uint256",
          "name": "_outToInSwapRate",
          "type": "uint256"
        }
      ],
      "name": "SetSwapRate",
      "type": "event"
    },
    {
      "anonymous": false,
      "inputs": [
        {
          "indexed": false,
          "internalType": "address",
          "name": "_from",
          "type": "address"
        },
        {
          "indexed": false,
          "internalType": "address",
          "name": "_inToken",
          "type": "address"
        },
        {
          "indexed": false,
          "internalType": "address",
          "name": "_outToken",
          "type": "address"
        },
        {
          "indexed": false,
          "internalType": "uint256",
          "name": "_inAmount",
          "type": "uint256"
        }
      ],
      "name": "Swap",
      "type": "event"
    },
    {
      "anonymous": false,
      "inputs": [
        {
          "indexed": false,
          "internalType": "address",
          "name": "_token",
          "type": "address"
        },
        {
          "indexed": false,
          "internalType": "uint256",
          "name": "_amount",
          "type": "uint256"
        }
      ],
      "name": "Withdraw",
      "type": "event"
    },
    {
      "inputs": [],
      "name": "owner",
      "outputs": [
        {
          "internalType": "address",
          "name": "",
          "type": "address"
        }
      ],
      "stateMutability": "view",
      "type": "function",
      "constant": true
    },
    {
      "inputs": [],
      "name": "renounceOwnership",
      "outputs": [],
      "stateMutability": "nonpayable",
      "type": "function"
    },
    {
      "inputs": [],
      "name": "swapRateDecimal",
      "outputs": [
        {
          "internalType": "uint256",
          "name": "",
          "type": "uint256"
        }
      ],
      "stateMutability": "view",
      "type": "function",
      "constant": true
    },
    {
      "inputs": [],
      "name": "tokenPairs",
      "outputs": [
        {
          "internalType": "uint256",
          "name": "nPairs",
          "type": "uint256"
        }
      ],
      "stateMutability": "view",
      "type": "function",
      "constant": true
    },
    {
      "inputs": [
        {
          "internalType": "address",
          "name": "newOwner",
          "type": "address"
        }
      ],
      "name": "transferOwnership",
      "outputs": [],
      "stateMutability": "nonpayable",
      "type": "function"
    },
    {
      "stateMutability": "payable",
      "type": "receive",
      "payable": true
    },
    {
      "inputs": [
        {
          "internalType": "address",
          "name": "_inToken",
          "type": "address"
        },
        {
          "internalType": "address",
          "name": "_outToken",
          "type": "address"
        },
        {
          "internalType": "uint256",
          "name": "_inToOutSwapRate",
          "type": "uint256"
        },
        {
          "internalType": "uint256",
          "name": "_outToinSwapRate",
          "type": "uint256"
        }
      ],
      "name": "setSwapRate",
      "outputs": [
        {
          "internalType": "bool",
          "name": "",
          "type": "bool"
        }
      ],
      "stateMutability": "nonpayable",
      "type": "function"
    },
    {
      "inputs": [
        {
          "internalType": "address",
          "name": "_token",
          "type": "address"
        },
        {
          "internalType": "uint256",
          "name": "_amount",
          "type": "uint256"
        }
      ],
      "name": "deposit",
      "outputs": [],
      "stateMutability": "nonpayable",
      "type": "function"
    },
    {
      "inputs": [
        {
          "internalType": "address",
          "name": "_token",
          "type": "address"
        },
        {
          "internalType": "uint256",
          "name": "_amount",
          "type": "uint256"
        }
      ],
      "name": "withdraw",
      "outputs": [
        {
          "internalType": "bool",
          "name": "",
          "type": "bool"
        }
      ],
      "stateMutability": "nonpayable",
      "type": "function"
    },
    {
      "inputs": [
        {
          "internalType": "address",
          "name": "_inToken",
          "type": "address"
        },
        {
          "internalType": "address",
          "name": "_outToken",
          "type": "address"
        },
        {
          "internalType": "uint256",
          "name": "_inAmount",
          "type": "uint256"
        }
      ],
      "name": "swap",
      "outputs": [],
      "stateMutability": "nonpayable",
      "type": "function"
    },
    {
      "inputs": [],
      "name": "swappablePairs",
      "outputs": [
        {
          "internalType": "address[]",
          "name": "",
          "type": "address[]"
        },
        {
          "internalType": "address[]",
          "name": "",
          "type": "address[]"
        },
        {
          "internalType": "uint256[]",
          "name": "",
          "type": "uint256[]"
        }
      ],
      "stateMutability": "view",
      "type": "function",
      "constant": true
    },
    {
      "inputs": [
        {
          "internalType": "address",
          "name": "_inToken",
          "type": "address"
        },
        {
          "internalType": "address",
          "name": "_outToken",
          "type": "address"
        }
      ],
      "name": "swappable",
      "outputs": [
        {
          "internalType": "bool",
          "name": "",
          "type": "bool"
        }
      ],
      "stateMutability": "view",
      "type": "function",
      "constant": true
    },
    {
      "inputs": [
        {
          "internalType": "address",
          "name": "_inToken",
          "type": "address"
        },
        {
          "internalType": "address",
          "name": "_outToken",
          "type": "address"
        }
      ],
      "name": "swapRate",
      "outputs": [
        {
          "internalType": "uint256",
          "name": "",
          "type": "uint256"
        }
      ],
      "stateMutability": "view",
      "type": "function",
      "constant": true
    }
  ],
  "bytecode": "0x608060405260026005553480156200001657600080fd5b50620000376200002b6200003d60201b60201c565b6200004560201b60201c565b62000109565b600033905090565b60008060009054906101000a900473ffffffffffffffffffffffffffffffffffffffff169050816000806101000a81548173ffffffffffffffffffffffffffffffffffffffff021916908373ffffffffffffffffffffffffffffffffffffffff1602179055508173ffffffffffffffffffffffffffffffffffffffff168173ffffffffffffffffffffffffffffffffffffffff167f8be0079c531659141344cd1fd0a4f28419497f9722a3daafe3b4186f6b6457e060405160405180910390a35050565b6128a280620001196000396000f3fe6080604052600436106100aa5760003560e01c80638da5cb5b116100645780638da5cb5b146101c85780638f77c0d3146101f3578063d9775f2f1461021e578063df791e501461025b578063f2fde38b14610284578063f3fef3a3146102ad576100b1565b8062d46014146100b657806347e7ef24146100e15780635db3e7421461010a5780636557b5c314610137578063715018a6146101745780637db9b46f1461018b576100b1565b366100b157005b600080fd5b3480156100c257600080fd5b506100cb6102ea565b6040516100d8919061199d565b60405180910390f35b3480156100ed57600080fd5b5061010860048036038101906101039190611a47565b6102f6565b005b34801561011657600080fd5b5061011f61052f565b60405161012e93929190611c03565b60405180910390f35b34801561014357600080fd5b5061015e60048036038101906101599190611c4f565b610a85565b60405161016b9190611caa565b60405180910390f35b34801561018057600080fd5b50610189610b1f565b005b34801561019757600080fd5b506101b260048036038101906101ad9190611cc5565b610ba7565b6040516101bf9190611caa565b60405180910390f35b3480156101d457600080fd5b506101dd6110db565b6040516101ea9190611d3b565b60405180910390f35b3480156101ff57600080fd5b50610208611104565b604051610215919061199d565b60405180910390f35b34801561022a57600080fd5b5061024560048036038101906102409190611c4f565b61110a565b604051610252919061199d565b60405180910390f35b34801561026757600080fd5b50610282600480360381019061027d9190611d56565b611194565b005b34801561029057600080fd5b506102ab60048036038101906102a69190611da9565b61154e565b005b3480156102b957600080fd5b506102d460048036038101906102cf9190611a47565b611646565b6040516102e19190611caa565b60405180910390f35b60018060010154905081565b6102fe61188c565b73ffffffffffffffffffffffffffffffffffffffff1661031c6110db565b73ffffffffffffffffffffffffffffffffffffffff1614610372576040517f08c379a000000000000000000000000000000000000000000000000000000000815260040161036990611e33565b60405180910390fd5b600081116103b5576040517f08c379a00000000000000000000000000000000000000000000000000000000081526004016103ac90611e9f565b60405180910390fd5b808273ffffffffffffffffffffffffffffffffffffffff166370a08231336040518263ffffffff1660e01b81526004016103ef9190611d3b565b602060405180830381865afa15801561040c573d6000803e3d6000fd5b505050506040513d601f19601f820116820180604052508101906104309190611ed4565b1015610471576040517f08c379a000000000000000000000000000000000000000000000000000000000815260040161046890611f73565b60405180910390fd5b8173ffffffffffffffffffffffffffffffffffffffff166323b872dd3330846040518463ffffffff1660e01b81526004016104ae93929190611f93565b6020604051808303816000875af11580156104cd573d6000803e3d6000fd5b505050506040513d601f19601f820116820180604052508101906104f19190611ff6565b507fe1fffcc4923d04b559f4d29a8bfc6cda04eb5b0d3c460751c2402c5c5cc9109c8282604051610523929190612023565b60405180910390a15050565b6060806060600060026001800154610547919061207b565b67ffffffffffffffff8111156105605761055f6120d5565b5b60405190808252806020026020018201604052801561058e5781602001602082028036833780820191505090505b5090506000600260018001546105a4919061207b565b67ffffffffffffffff8111156105bd576105bc6120d5565b5b6040519080825280602002602001820160405280156105eb5781602001602082028036833780820191505090505b509050600060026001800154610601919061207b565b67ffffffffffffffff81111561061a576106196120d5565b5b6040519080825280602002602001820160405280156106485781602001602082028036833780820191505090505b5090506000806000805b600180600001805490506106669190612104565b811015610a7057600060018261067c9190612138565b90505b600160000180549050811015610a5c57600160000182815481106106a6576106a561218e565b5b9060005260206000200160009054906101000a900473ffffffffffffffffffffffffffffffffffffffff169450600160000181815481106106ea576106e961218e565b5b9060005260206000200160009054906101000a900473ffffffffffffffffffffffffffffffffffffffff1693506000600160030160008773ffffffffffffffffffffffffffffffffffffffff1673ffffffffffffffffffffffffffffffffffffffff16815260200190815260200160002060008673ffffffffffffffffffffffffffffffffffffffff1673ffffffffffffffffffffffffffffffffffffffff168152602001908152602001600020541115610a4957848884815181106107b3576107b261218e565b5b602002602001019073ffffffffffffffffffffffffffffffffffffffff16908173ffffffffffffffffffffffffffffffffffffffff168152505083886001856107fc9190612138565b8151811061080d5761080c61218e565b5b602002602001019073ffffffffffffffffffffffffffffffffffffffff16908173ffffffffffffffffffffffffffffffffffffffff16815250508387848151811061085b5761085a61218e565b5b602002602001019073ffffffffffffffffffffffffffffffffffffffff16908173ffffffffffffffffffffffffffffffffffffffff168152505084876001856108a49190612138565b815181106108b5576108b461218e565b5b602002602001019073ffffffffffffffffffffffffffffffffffffffff16908173ffffffffffffffffffffffffffffffffffffffff1681525050600160030160008673ffffffffffffffffffffffffffffffffffffffff1673ffffffffffffffffffffffffffffffffffffffff16815260200190815260200160002060008573ffffffffffffffffffffffffffffffffffffffff1673ffffffffffffffffffffffffffffffffffffffff168152602001908152602001600020548684815181106109825761098161218e565b5b602002602001018181525050600160030160008573ffffffffffffffffffffffffffffffffffffffff1673ffffffffffffffffffffffffffffffffffffffff16815260200190815260200160002060008673ffffffffffffffffffffffffffffffffffffffff1673ffffffffffffffffffffffffffffffffffffffff1681526020019081526020016000205486600185610a1c9190612138565b81518110610a2d57610a2c61218e565b5b602002602001018181525050600283610a469190612138565b92505b8080610a54906121bd565b91505061067f565b508080610a68906121bd565b915050610652565b50858585985098509850505050505050909192565b600080600160030160008573ffffffffffffffffffffffffffffffffffffffff1673ffffffffffffffffffffffffffffffffffffffff16815260200190815260200160002060008473ffffffffffffffffffffffffffffffffffffffff1673ffffffffffffffffffffffffffffffffffffffff1681526020019081526020016000205411610b14576000610b17565b60015b905092915050565b610b2761188c565b73ffffffffffffffffffffffffffffffffffffffff16610b456110db565b73ffffffffffffffffffffffffffffffffffffffff1614610b9b576040517f08c379a0000000000000000000000000000000000000000000000000000000008152600401610b9290611e33565b60405180910390fd5b610ba56000611894565b565b6000610bb161188c565b73ffffffffffffffffffffffffffffffffffffffff16610bcf6110db565b73ffffffffffffffffffffffffffffffffffffffff1614610c25576040517f08c379a0000000000000000000000000000000000000000000000000000000008152600401610c1c90611e33565b60405180910390fd5b60008311610c68576040517f08c379a0000000000000000000000000000000000000000000000000000000008152600401610c5f90612278565b60405180910390fd5b60008211610cab576040517f08c379a0000000000000000000000000000000000000000000000000000000008152600401610ca29061230a565b60405180910390fd5b60001515600160020160008773ffffffffffffffffffffffffffffffffffffffff1673ffffffffffffffffffffffffffffffffffffffff16815260200190815260200160002060009054906101000a900460ff1615151415610dc85760018060020160008773ffffffffffffffffffffffffffffffffffffffff1673ffffffffffffffffffffffffffffffffffffffff16815260200190815260200160002060006101000a81548160ff0219169083151502179055506001600001859080600181540180825580915050600190039060005260206000200160009091909190916101000a81548173ffffffffffffffffffffffffffffffffffffffff021916908373ffffffffffffffffffffffffffffffffffffffff1602179055505b60001515600160020160008673ffffffffffffffffffffffffffffffffffffffff1673ffffffffffffffffffffffffffffffffffffffff16815260200190815260200160002060009054906101000a900460ff1615151415610ee55760018060020160008673ffffffffffffffffffffffffffffffffffffffff1673ffffffffffffffffffffffffffffffffffffffff16815260200190815260200160002060006101000a81548160ff0219169083151502179055506001600001849080600181540180825580915050600190039060005260206000200160009091909190916101000a81548173ffffffffffffffffffffffffffffffffffffffff021916908373ffffffffffffffffffffffffffffffffffffffff1602179055505b6000600160030160008773ffffffffffffffffffffffffffffffffffffffff1673ffffffffffffffffffffffffffffffffffffffff16815260200190815260200160002060008673ffffffffffffffffffffffffffffffffffffffff1673ffffffffffffffffffffffffffffffffffffffff168152602001908152602001600020541415610f8a576001806001016000828254610f829190612138565b925050819055505b82600160030160008773ffffffffffffffffffffffffffffffffffffffff1673ffffffffffffffffffffffffffffffffffffffff16815260200190815260200160002060008673ffffffffffffffffffffffffffffffffffffffff1673ffffffffffffffffffffffffffffffffffffffff1681526020019081526020016000208190555081600160030160008673ffffffffffffffffffffffffffffffffffffffff1673ffffffffffffffffffffffffffffffffffffffff16815260200190815260200160002060008773ffffffffffffffffffffffffffffffffffffffff1673ffffffffffffffffffffffffffffffffffffffff168152602001908152602001600020819055507f51267eee8ac1c71a5151684f97ca7c7f7a40301be1124901bbf4fd6a71438230858585856040516110c7949392919061232a565b60405180910390a160019050949350505050565b60008060009054906101000a900473ffffffffffffffffffffffffffffffffffffffff16905090565b60055481565b6000600160030160008473ffffffffffffffffffffffffffffffffffffffff1673ffffffffffffffffffffffffffffffffffffffff16815260200190815260200160002060008373ffffffffffffffffffffffffffffffffffffffff1673ffffffffffffffffffffffffffffffffffffffff16815260200190815260200160002054905092915050565b6000600160030160008573ffffffffffffffffffffffffffffffffffffffff1673ffffffffffffffffffffffffffffffffffffffff16815260200190815260200160002060008473ffffffffffffffffffffffffffffffffffffffff1673ffffffffffffffffffffffffffffffffffffffff1681526020019081526020016000205411611256576040517f08c379a000000000000000000000000000000000000000000000000000000000815260040161124d906123e1565b60405180910390fd5b60008111611299576040517f08c379a000000000000000000000000000000000000000000000000000000000815260040161129090612473565b60405180910390fd5b600061134d600554600a6112ad91906125c6565b61133f84600160030160008973ffffffffffffffffffffffffffffffffffffffff1673ffffffffffffffffffffffffffffffffffffffff16815260200190815260200160002060008873ffffffffffffffffffffffffffffffffffffffff1673ffffffffffffffffffffffffffffffffffffffff1681526020019081526020016000205461195890919063ffffffff16565b61196e90919063ffffffff16565b9050808373ffffffffffffffffffffffffffffffffffffffff166370a08231306040518263ffffffff1660e01b81526004016113899190611d3b565b602060405180830381865afa1580156113a6573d6000803e3d6000fd5b505050506040513d601f19601f820116820180604052508101906113ca9190611ed4565b101561140b576040517f08c379a000000000000000000000000000000000000000000000000000000000815260040161140290612683565b60405180910390fd5b8373ffffffffffffffffffffffffffffffffffffffff166323b872dd3330856040518463ffffffff1660e01b815260040161144893929190611f93565b6020604051808303816000875af1158015611467573d6000803e3d6000fd5b505050506040513d601f19601f8201168201806040525081019061148b9190611ff6565b508273ffffffffffffffffffffffffffffffffffffffff1663a9059cbb33836040518363ffffffff1660e01b81526004016114c7929190612023565b6020604051808303816000875af11580156114e6573d6000803e3d6000fd5b505050506040513d601f19601f8201168201806040525081019061150a9190611ff6565b507fffebebfb273923089a3ed6bac0fd4686ac740307859becadeb82f998e30db6143385858560405161154094939291906126a3565b60405180910390a150505050565b61155661188c565b73ffffffffffffffffffffffffffffffffffffffff166115746110db565b73ffffffffffffffffffffffffffffffffffffffff16146115ca576040517f08c379a00000000000000000000000000000000000000000000000000000000081526004016115c190611e33565b60405180910390fd5b600073ffffffffffffffffffffffffffffffffffffffff168173ffffffffffffffffffffffffffffffffffffffff16141561163a576040517f08c379a00000000000000000000000000000000000000000000000000000000081526004016116319061275a565b60405180910390fd5b61164381611894565b50565b600061165061188c565b73ffffffffffffffffffffffffffffffffffffffff1661166e6110db565b73ffffffffffffffffffffffffffffffffffffffff16146116c4576040517f08c379a00000000000000000000000000000000000000000000000000000000081526004016116bb90611e33565b60405180910390fd5b60008211611707576040517f08c379a00000000000000000000000000000000000000000000000000000000081526004016116fe90611e9f565b60405180910390fd5b818373ffffffffffffffffffffffffffffffffffffffff166370a08231306040518263ffffffff1660e01b81526004016117419190611d3b565b602060405180830381865afa15801561175e573d6000803e3d6000fd5b505050506040513d601f19601f820116820180604052508101906117829190611ed4565b10156117c3576040517f08c379a00000000000000000000000000000000000000000000000000000000081526004016117ba906127ec565b60405180910390fd5b8273ffffffffffffffffffffffffffffffffffffffff1663a9059cbb6117e76110db565b846040518363ffffffff1660e01b8152600401611805929190612023565b6020604051808303816000875af1158015611824573d6000803e3d6000fd5b505050506040513d601f19601f820116820180604052508101906118489190611ff6565b507f884edad9ce6fa2440d8a54cc123490eb96d2768479d49ff9c7366125a9424364838360405161187a929190612023565b60405180910390a16001905092915050565b600033905090565b60008060009054906101000a900473ffffffffffffffffffffffffffffffffffffffff169050816000806101000a81548173ffffffffffffffffffffffffffffffffffffffff021916908373ffffffffffffffffffffffffffffffffffffffff1602179055508173ffffffffffffffffffffffffffffffffffffffff168173ffffffffffffffffffffffffffffffffffffffff167f8be0079c531659141344cd1fd0a4f28419497f9722a3daafe3b4186f6b6457e060405160405180910390a35050565b60008183611966919061207b565b905092915050565b6000818361197c919061283b565b905092915050565b6000819050919050565b61199781611984565b82525050565b60006020820190506119b2600083018461198e565b92915050565b600080fd5b600073ffffffffffffffffffffffffffffffffffffffff82169050919050565b60006119e8826119bd565b9050919050565b6119f8816119dd565b8114611a0357600080fd5b50565b600081359050611a15816119ef565b92915050565b611a2481611984565b8114611a2f57600080fd5b50565b600081359050611a4181611a1b565b92915050565b60008060408385031215611a5e57611a5d6119b8565b5b6000611a6c85828601611a06565b9250506020611a7d85828601611a32565b9150509250929050565b600081519050919050565b600082825260208201905092915050565b6000819050602082019050919050565b611abc816119dd565b82525050565b6000611ace8383611ab3565b60208301905092915050565b6000602082019050919050565b6000611af282611a87565b611afc8185611a92565b9350611b0783611aa3565b8060005b83811015611b38578151611b1f8882611ac2565b9750611b2a83611ada565b925050600181019050611b0b565b5085935050505092915050565b600081519050919050565b600082825260208201905092915050565b6000819050602082019050919050565b611b7a81611984565b82525050565b6000611b8c8383611b71565b60208301905092915050565b6000602082019050919050565b6000611bb082611b45565b611bba8185611b50565b9350611bc583611b61565b8060005b83811015611bf6578151611bdd8882611b80565b9750611be883611b98565b925050600181019050611bc9565b5085935050505092915050565b60006060820190508181036000830152611c1d8186611ae7565b90508181036020830152611c318185611ae7565b90508181036040830152611c458184611ba5565b9050949350505050565b60008060408385031215611c6657611c656119b8565b5b6000611c7485828601611a06565b9250506020611c8585828601611a06565b9150509250929050565b60008115159050919050565b611ca481611c8f565b82525050565b6000602082019050611cbf6000830184611c9b565b92915050565b60008060008060808587031215611cdf57611cde6119b8565b5b6000611ced87828801611a06565b9450506020611cfe87828801611a06565b9350506040611d0f87828801611a32565b9250506060611d2087828801611a32565b91505092959194509250565b611d35816119dd565b82525050565b6000602082019050611d506000830184611d2c565b92915050565b600080600060608486031215611d6f57611d6e6119b8565b5b6000611d7d86828701611a06565b9350506020611d8e86828701611a06565b9250506040611d9f86828701611a32565b9150509250925092565b600060208284031215611dbf57611dbe6119b8565b5b6000611dcd84828501611a06565b91505092915050565b600082825260208201905092915050565b7f4f776e61626c653a2063616c6c6572206973206e6f7420746865206f776e6572600082015250565b6000611e1d602083611dd6565b9150611e2882611de7565b602082019050919050565b60006020820190508181036000830152611e4c81611e10565b9050919050565b7f416d6f756e74206973206c657373206f7220657175616c20746f203000000000600082015250565b6000611e89601c83611dd6565b9150611e9482611e53565b602082019050919050565b60006020820190508181036000830152611eb881611e7c565b9050919050565b600081519050611ece81611a1b565b92915050565b600060208284031215611eea57611ee96119b8565b5b6000611ef884828501611ebf565b91505092915050565b7f446f206e6f74206861766520656e6f75676820616d6f756e74206f662074686560008201527f20546f6b656e0000000000000000000000000000000000000000000000000000602082015250565b6000611f5d602683611dd6565b9150611f6882611f01565b604082019050919050565b60006020820190508181036000830152611f8c81611f50565b9050919050565b6000606082019050611fa86000830186611d2c565b611fb56020830185611d2c565b611fc2604083018461198e565b949350505050565b611fd381611c8f565b8114611fde57600080fd5b50565b600081519050611ff081611fca565b92915050565b60006020828403121561200c5761200b6119b8565b5b600061201a84828501611fe1565b91505092915050565b60006040820190506120386000830185611d2c565b612045602083018461198e565b9392505050565b7f4e487b7100000000000000000000000000000000000000000000000000000000600052601160045260246000fd5b600061208682611984565b915061209183611984565b9250817fffffffffffffffffffffffffffffffffffffffffffffffffffffffffffffffff04831182151516156120ca576120c961204c565b5b828202905092915050565b7f4e487b7100000000000000000000000000000000000000000000000000000000600052604160045260246000fd5b600061210f82611984565b915061211a83611984565b92508282101561212d5761212c61204c565b5b828203905092915050565b600061214382611984565b915061214e83611984565b9250827fffffffffffffffffffffffffffffffffffffffffffffffffffffffffffffffff038211156121835761218261204c565b5b828201905092915050565b7f4e487b7100000000000000000000000000000000000000000000000000000000600052603260045260246000fd5b60006121c882611984565b91507fffffffffffffffffffffffffffffffffffffffffffffffffffffffffffffffff8214156121fb576121fa61204c565b5b600182019050919050565b7f5377617020526174652066726f6d2074686520466972737420746f205365636f60008201527f6e6420546f6e6b656e2073686f756c64206c6172676572207468616e20300000602082015250565b6000612262603e83611dd6565b915061226d82612206565b604082019050919050565b6000602082019050818103600083015261229181612255565b9050919050565b7f5377617020526174652066726f6d20746865205365636f6e6420746f2046697260008201527f737420546f6e6b656e2073686f756c64206c6172676572207468616e20300000602082015250565b60006122f4603e83611dd6565b91506122ff82612298565b604082019050919050565b60006020820190508181036000830152612323816122e7565b9050919050565b600060808201905061233f6000830187611d2c565b61234c6020830186611d2c565b612359604083018561198e565b612366606083018461198e565b95945050505050565b7f446f206e6f7420737570706f727420666f722073776170696e6720746865736560008201527f2074776f20746f6b656e732e0000000000000000000000000000000000000000602082015250565b60006123cb602c83611dd6565b91506123d68261236f565b604082019050919050565b600060208201905081810360008301526123fa816123be565b9050919050565b7f43616e206e6f7420737761702c2062656361757365206f662074686520616d6f60008201527f756e74206973206e6f74206c6172676572207468616e20300000000000000000602082015250565b600061245d603883611dd6565b915061246882612401565b604082019050919050565b6000602082019050818103600083015261248c81612450565b9050919050565b60008160011c9050919050565b6000808291508390505b60018511156124ea578086048111156124c6576124c561204c565b5b60018516156124d55780820291505b80810290506124e385612493565b94506124aa565b94509492505050565b60008261250357600190506125bf565b8161251157600090506125bf565b8160018114612527576002811461253157612560565b60019150506125bf565b60ff8411156125435761254261204c565b5b8360020a91508482111561255a5761255961204c565b5b506125bf565b5060208310610133831016604e8410600b84101617156125955782820a9050838111156125905761258f61204c565b5b6125bf565b6125a284848460016124a0565b925090508184048111156125b9576125b861204c565b5b81810290505b9392505050565b60006125d182611984565b91506125dc83611984565b92506126097fffffffffffffffffffffffffffffffffffffffffffffffffffffffffffffffff84846124f3565b905092915050565b7f43616e206e6f7420737761702c2062656361757365206f66206e6f7420656e6f60008201527f75676874206f7574546f6b656e20696e2074686520636f6e7472616374000000602082015250565b600061266d603d83611dd6565b915061267882612611565b604082019050919050565b6000602082019050818103600083015261269c81612660565b9050919050565b60006080820190506126b86000830187611d2c565b6126c56020830186611d2c565b6126d26040830185611d2c565b6126df606083018461198e565b95945050505050565b7f4f776e61626c653a206e6577206f776e657220697320746865207a65726f206160008201527f6464726573730000000000000000000000000000000000000000000000000000602082015250565b6000612744602683611dd6565b915061274f826126e8565b604082019050919050565b6000602082019050818103600083015261277381612737565b9050919050565b7f43616e206e6f742077697468647261772c2062616361757365206f66206e6f7460008201527f20656e6f7567687420616d6f756e740000000000000000000000000000000000602082015250565b60006127d6602f83611dd6565b91506127e18261277a565b604082019050919050565b60006020820190508181036000830152612805816127c9565b9050919050565b7f4e487b7100000000000000000000000000000000000000000000000000000000600052601260045260246000fd5b600061284682611984565b915061285183611984565b9250826128615761286061280c565b5b82820490509291505056fea264697066735822122009400d18b7b1b6b976dd417519095bb93f33513753eae886f3ce97dac0d23cfa64736f6c634300080c0033",
  "immutableReferences": {},
  "source": "// SPDX-License-Identifier: MIT\npragma solidity ^0.8.10;\n\nimport \"@openzeppelin/contracts/token/ERC20/IERC20.sol\";\nimport \"@openzeppelin/contracts/access/Ownable.sol\";\nimport \"@openzeppelin/contracts/utils/math/SafeMath.sol\";\n\ncontract StableSwap is Ownable {\n    using SafeMath for uint256;\n\n    event SetSwapRate(\n        address _inToken,\n        address _outToken,\n        uint256 _inToOutSwapRate,\n        uint256 _outToInSwapRate\n    );\n    event Receive(uint256 _amount);\n    event Deposit(address _token, uint256 _amount);\n    event Withdraw(address _token, uint256 _amount);\n    event Swap(\n        address _from,\n        address _inToken,\n        address _outToken,\n        uint256 _inAmount\n    );\n\n    struct TokenPairs {\n        address[] tokens;\n        uint256 nPairs;\n        mapping(address => bool) availableTokens;\n        mapping(address => mapping(address => uint256)) swapRates;\n    }\n\n    TokenPairs public tokenPairs;\n    uint256 public swapRateDecimal = 2;\n\n    constructor() Ownable() {}\n\n    receive() external payable {}\n\n    function setSwapRate(\n        address _inToken,\n        address _outToken,\n        uint256 _inToOutSwapRate,\n        uint256 _outToinSwapRate\n    ) public onlyOwner returns (bool) {\n        require(\n            _inToOutSwapRate > 0,\n            \"Swap Rate from the First to Second Tonken should larger than 0\"\n        );\n\n        require(\n            _outToinSwapRate > 0,\n            \"Swap Rate from the Second to First Tonken should larger than 0\"\n        );\n\n        if (tokenPairs.availableTokens[_inToken] == false) {\n            tokenPairs.availableTokens[_inToken] = true;\n            tokenPairs.tokens.push(_inToken);\n        }\n\n        if (tokenPairs.availableTokens[_outToken] == false) {\n            tokenPairs.availableTokens[_outToken] = true;\n            tokenPairs.tokens.push(_outToken);\n        }\n\n        if (tokenPairs.swapRates[_inToken][_outToken] == 0) {\n            tokenPairs.nPairs += 1;\n        }\n\n        tokenPairs.swapRates[_inToken][_outToken] = _inToOutSwapRate;\n        tokenPairs.swapRates[_outToken][_inToken] = _outToinSwapRate;\n\n        emit SetSwapRate(\n            _inToken,\n            _outToken,\n            _inToOutSwapRate,\n            _outToinSwapRate\n        );\n\n        return true;\n    }\n\n    function deposit(address _token, uint256 _amount) public onlyOwner {\n        require(_amount > 0, \"Amount is less or equal to 0\");\n        require(\n            IERC20(_token).balanceOf(address(msg.sender)) >= _amount,\n            \"Do not have enough amount of the Token\"\n        );\n\n        IERC20(_token).transferFrom(\n            address(msg.sender),\n            address(this),\n            _amount\n        );\n\n        emit Deposit(_token, _amount);\n    }\n\n    function withdraw(address _token, uint256 _amount)\n        external\n        onlyOwner\n        returns (bool)\n    {\n        require(_amount > 0, \"Amount is less or equal to 0\");\n        require(\n            IERC20(_token).balanceOf(address(this)) >= _amount,\n            \"Can not withdraw, bacause of not enought amount\"\n        );\n\n        IERC20(_token).transfer(owner(), _amount);\n\n        emit Withdraw(_token, _amount);\n        return true;\n    }\n\n    function swap(\n        address _inToken,\n        address _outToken,\n        uint256 _inAmount\n    ) public {\n        require(\n            tokenPairs.swapRates[_inToken][_outToken] > 0,\n            \"Do not support for swaping these two tokens.\"\n        );\n        require(\n            _inAmount > 0,\n            \"Can not swap, because of the amount is not larger than 0\"\n        );\n\n        uint256 outAmount = tokenPairs\n        .swapRates[_inToken][_outToken].mul(_inAmount).div(10**swapRateDecimal);\n\n        require(\n            IERC20(_outToken).balanceOf(address(this)) >= outAmount,\n            \"Can not swap, because of not enought outToken in the contract\"\n        );\n\n        IERC20(_inToken).transferFrom(msg.sender, address(this), _inAmount);\n        IERC20(_outToken).transfer(msg.sender, outAmount);\n\n        emit Swap(msg.sender, _inToken, _outToken, _inAmount);\n    }\n\n    function swappablePairs()\n        external\n        view\n        returns (\n            address[] memory,\n            address[] memory,\n            uint256[] memory\n        )\n    {\n        address[] memory inTokens = new address[](tokenPairs.nPairs * 2);\n        address[] memory outTokens = new address[](tokenPairs.nPairs * 2);\n        uint256[] memory swapRates = new uint256[](tokenPairs.nPairs * 2);\n\n        address inToken;\n        address outToken;\n        uint256 arrayIndex = 0;\n\n        for (\n            uint256 inIndex = 0;\n            inIndex < (tokenPairs.tokens.length - 1);\n            inIndex++\n        ) {\n            for (\n                uint256 outIndex = inIndex + 1;\n                outIndex < tokenPairs.tokens.length;\n                outIndex++\n            ) {\n                inToken = tokenPairs.tokens[inIndex];\n                outToken = tokenPairs.tokens[outIndex];\n\n                if (tokenPairs.swapRates[inToken][outToken] > 0) {\n                    inTokens[arrayIndex] = inToken;\n                    inTokens[arrayIndex + 1] = outToken;\n\n                    outTokens[arrayIndex] = outToken;\n                    outTokens[arrayIndex + 1] = inToken;\n\n                    swapRates[arrayIndex] = tokenPairs.swapRates[inToken][\n                        outToken\n                    ];\n                    swapRates[arrayIndex + 1] = tokenPairs.swapRates[outToken][\n                        inToken\n                    ];\n\n                    arrayIndex += 2;\n                }\n            }\n        }\n\n        return (inTokens, outTokens, swapRates);\n    }\n\n    function swappable(address _inToken, address _outToken)\n        external\n        view\n        returns (bool)\n    {\n        return tokenPairs.swapRates[_inToken][_outToken] > 0 ? true : false;\n    }\n\n    function swapRate(address _inToken, address _outToken)\n        external\n        view\n        returns (uint256)\n    {\n        return tokenPairs.swapRates[_inToken][_outToken];\n    }\n}\n",
  "sourcePath": "/Users/tsengmj/Documents/MJTseng/jkopay_hw/contracts/StableSwap.sol",
  "compiler": {
    "name": "solc",
    "version": "0.8.12+commit.f00d7308.Emscripten.clang"
  },
  "schemaVersion": "3.4.6",
  "updatedAt": "2022-04-05T13:59:39.619Z",
  "networkType": "ethereum",
  "devdoc": {
    "kind": "dev",
    "methods": {
      "owner()": {
        "details": "Returns the address of the current owner."
      },
      "renounceOwnership()": {
        "details": "Leaves the contract without owner. It will not be possible to call `onlyOwner` functions anymore. Can only be called by the current owner. NOTE: Renouncing ownership will leave the contract without an owner, thereby removing any functionality that is only available to the owner."
      },
      "transferOwnership(address)": {
        "details": "Transfers ownership of the contract to a new account (`newOwner`). Can only be called by the current owner."
      }
    },
    "version": 1
  },
  "userdoc": {
    "kind": "user",
    "methods": {},
    "version": 1
  }
}